:04000000FEEFFFF020
:100E000000EE1100000000000000221300000000AE
:100E10005A12000000000000000000000000000066
:100E200000000000000000000000000000000000C2
:100E300000000000000000000000000000A41200FC
:100E400082120000000000000053797374656D2069
:100E500052656164790D0A00204C4F570D0A00005D
:100E600063EC09F0490E526EB0EC08F0410E556E7D
:100E7000080E566E310E576E000E586E89509EEC5D
:100E800007F0420E556E080E566E290E576E000E74
:100E9000586E8A509EEC07F0430E556E080E566E43
:100EA000210E576EC00E586E8B509EEC07F0440E0C
:100EB000556E080E566E190E576E000E586E8C50F9
:100EC0009EEC07F0450E556E080E566E110E576ECD
:100ED000000E586E8D509EEC07F0460E556E080EB3
:100EE000566E090E576E000E586E8E509EEC07F02F
:100EF000470E556E050E566E010E576E080E586E53
:100F00008F509EEC07F0480E556E040E566E390E4B
:100F1000576E000E586E90509EEC07F0020E5F6EFA
:100F2000A00E5E6E920EE82EFED75E2EFCD75F2ED0
:100F3000FAD700D036EF07F0FEEFFFF05C6E5D6A87
:100F4000F3EF07F05DC059F0010E5A6E592AABEF6E
:100F500007F0D8905A36592EA9EF07F05A50581476
:100F60000009D8B4B6EF07F0B8EF07F0BAEF07F012
:100F7000F2EF07F05DC059F0010E5A6E592AC3EF27
:100F800007F0D8905A36592EC1EF07F05A505C142A
:100F90000009D8A4CEEF07F0D1EF07F0010ED2EF91
:100FA00007F0000E5B6E5B50D8A4D9EF07F0DBEFC3
:100FB00007F0ECEF07F057505D24D96EDA6ADE04D3
:100FC000D8A4E5EF07F0E7EF07F0ECEF07F05DC01E
:100FD00053F0555051EC08F057505D24D96EDA6A41
:100FE0005BC0DFFF5D2A56505D5CD8A0FAEF07F0CA
:100FF000FCEF07F0A2EF07F01200796A7A6A400E60
:101000007B6E7C6A7D6A7E6A7F6A806A0E01906B65
:10101000986BA06BA56BAD6BB26BBA6BBF6B816845
:101020008268BF0E836E846885688668D70E876E77
:101030000F0E886E926B9A6BA76BAF6BB46BBC6B29
:10104000916999693F0EA16FA669F70EAE6FB369FA
:10105000DF0EBB6F0F0EC06F8F6997699F69A46920
:10106000AC69B169DF0EB96F0F0EBE6F8E699669FC
:101070009E69A369AB69B069B8690F0EBD6F170EA1
:101080000F6F0C0E686F956B946B936B9D6B9C6BE5
:101090009B6BAA6BA96BA86BB76BB66BB56B2989F9
:1010A0001200546E2DEC09F00009D8B45AEF08F084
:1010B0005CEF08F052EF08F0520E516E91EC09F01F
:1010C0002DEC09F00009D8B468EF08F06AEF08F0D9
:1010D00060EF08F054C051F091EC09F02DEC09F0EC
:1010E0000009D8B476EF08F078EF08F06EEF08F05A
:1010F0005350300F516E91EC09F0580E526EB0EC17
:1011000008F01200F29A0E013391F280000E516E37
:10111000000E526E000E536E8AEC09F00E013393EE
:10112000F282000E516E000E526E000E536E83EC72
:1011300009F00E013395F284000E516E000E526ECE
:10114000000E536E7CEC09F00E013397F296000E00
:10115000516E000E526E000E536E75EC09F01200C7
:10116000C8EF08F02DEC09F00009D8B4BAEF08F088
:10117000BCEF08F0B2EF08F052C0F6FF0E0EF76EAB
:10118000000EF86E0800F5CF51F091EC09F0522AEC
:1011900052C0F6FF0E0EF76E000EF86E0800F55006
:1011A0000009D8A4D6EF08F0D8EF08F0B2EF08F0A5
:1011B000120001010101010101010101010101010F
:1011C000010101010101010101010101010101010F
:1011D00001010101010101010101010101010101FF
:1011E0000101010101010101010101010101480E9B
:1011F0009E6E900E9C6E260E9D6E8A0E9A6E9B6A57
:10120000000E516E000E526E000E536E52EC09F03D
:10121000000E516E000E526E000E536E41EC09F03E
:10122000506A000E4F6E1200B20EF66E110EF76E7F
:10123000000EF86E00EE01F010EE3CF00900F5CF64
:10124000EEFFE550E150FAE100EE3DF0140EEE6ADB
:10125000E806FDE1000130EF07F0516A0E0136A902
:1012600034EF09F036EF09F03FEF09F09DAA3BEFAC
:1012700009F03DEF09F03FEF09F0010E516E5150BA
:101280001200515052105310D8B449EF09F04BEFEF
:1012900009F051EF09F051C03DF052C03EF053C08B
:1012A0003FF01200515052105310D8B45AEF09F0C9
:1012B0005CEF09F062EF09F051C040F052C041F01C
:1012C00053C042F012006CEC09F0FDEC07F0F7ECB3
:1012D00008F082EC08F01200600E0E01436F456BBF
:1012E000476B080E496F486B120051C043F052C063
:1012F00044F053C045F0120051C046F052C047F0D0
:1013000053C048F0120051C049F052C04AF053C0D7
:101310004BF0120051C04CF052C04DF053C04EF093
:08132000120051C099FF1200F8
:020000040001F9
:04FFFC0014EF09F005
:020000040030CA
:0C0000008FFFFFFF9FFFFFFFFFFFFFFFD0
:00000001FF
